:020000040000FA
:100000000C946F000C9497000C9497000C9497003C
:100010000C9497000C9497000C9497000C94970004
:100020000C9497000C9497000C9497000C949700F4
:100030000C9497000C9497000C9497000C949700E4
:100040000C94E00C0C9497000C94AE0C0C94880C5F
:100050000C9497000C9497000C9497000C949700C4
:100060000C942A0D0C949700084AD73B3BCE016EA6
:1000700084BCBFFDC12F3D6C74319ABD56833DDAFF
:100080003D00C77F11BED9E4BB4C3E916BAAAABE0E
:10009000000000803F0000000000250028002B0029
:1000A000040404040404040402020202020203031E
:1000B0000303030301020408102040800102040826
:1000C00010200102040810200000000800020100B6
:1000D000000304070000000000000000D00E1124FF
:1000E0001FBECFEFD8E0DEBFCDBF14E0A0E0B1E08F
:1000F000EAE9F0E302C005900D92A43AB107D9F7FE
:1001000026E0A4EAB4E001C01D92AF32B207E1F7E5
:1001100010E0CFE6D0E004C02197FE010E94111745
:10012000CE36D107C9F70E945D0F0C944B180C9482
:10013000000008950895AF92BF92CF92DF92EF92A0
:10014000FF920F931F93CF93DF936C017B018B0181
:10015000040F151FEB015E01AE18BF08C017D107D1
:1001600059F06991D601ED91FC910190F081E02D5B
:10017000C6010995892B79F7C501DF91CF911F91B0
:100180000F91FF90EF90DF90CF90BF90AF900895C8
:10019000FC01538D448D252F30E0842F90E0821B8D
:1001A000930B541710F0CF96089501970895FC0112
:1001B000918D828D981761F0A28DAE0FBF2FB11D6A
:1001C0005D968C91928D9F5F9F73928F90E00895C2
:1001D0008FEF9FEF0895FC01918D828D981731F07C
:1001E000828DE80FF11D858D90E008958FEF9FEFD0
:1001F0000895FC01918D228D892F90E0805C9F4FA6
:10020000821B91098F73992708958EE695E00E94CD
:10021000F90021E0892B09F420E0822F089580E085
:1002200090E0892B29F00E94050181110C940000B7
:100230000895FC01A48DA80FB92FB11DA35ABF4F7B
:100240002C91848D90E001968F739927848FA689D5
:10025000B7892C93A089B1898C91837080648C9329
:10026000938D848D981306C00288F389E02D8081D8
:100270008F7D80830895EF92FF920F931F93CF930A
:10028000DF93EC0181E0888F9B8D8C8D98131AC0D1
:10029000E889F989808185FF15C09FB7F894EE89B8
:1002A000FF896083E889F989808183708064808315
:1002B0009FBF81E090E0DF91CF911F910F91FF9060
:1002C000EF900895F62E0B8D10E00F5F1F4F0F7308
:1002D0001127E02E8C8D8E110CC00FB607FCFACFC3
:1002E000E889F989808185FFF5CFCE010E94190147
:1002F000F1CFEB8DEC0FFD2FF11DE35AFF4FF08294
:100300009FB7F8940B8FEA89FB8980818062CFCFF9
:10031000CF93DF93EC01888D8823B9F0AA89BB893C
:10032000E889F9898C9185FD03C0808186FD0DC027
:100330000FB607FCF7CF8C9185FFF2CF808185FF48
:10034000EDCFCE010E941901E9CFDF91CF91089541
:1003500090E0FC01E853FF4F2491FC01EC54FF4F67
:100360003491FC01E056FF4FE491EE23C9F02223C3
:1003700039F0233001F1A8F4213019F1223029F1AC
:10038000F0E0EE0FFF1FEA56FF4FA591B4918FB733
:10039000F894EC91611126C030953E233C938FBFB9
:1003A00008952730A9F02830C9F0243049F780910A
:1003B00080008F7D03C0809180008F7780938000C4
:1003C000DFCF84B58F7784BDDBCF84B58F7DFBCF46
:1003D0008091B0008F778093B000D2CF8091B00031
:1003E0008F7DF9CF3E2BDACF3FB7F8948091E904A7
:1003F0009091EA04A091EB04B091EC0426B5A89B7F
:1004000005C02F3F19F00196A11DB11D3FBFBA2FA6
:10041000A92F982F8827BC01CD01620F711D811D66
:10042000911D42E0660F771F881F991F4A95D1F7EB
:1004300008958F929F92AF92BF92CF92DF92EF92E8
:10044000FF924B015C010E94F4016B017C010E9450
:10045000F4016C197D098E099F09683E734081057E
:100460009105A8F321E0821A9108A108B10888EE4D
:10047000C80E83E0D81EE11CF11C81149104A10474
:10048000B10429F7FF90EF90DF90CF90BF90AF902D
:100490009F908F900895089508952091C504260F88
:1004A0003327331F21323105ECF420914405FC0140
:1004B00090E080E0243069F082E00895A091C504C6
:1004C0002191AC014B555B4FA40FB52FB11D2C935F
:1004D0000196861798F38091C504680F6093C50450
:1004E00080E0089581E008951092440581E08093B2
:1004F000430510921E0561E082E10E94A80161E0BF
:1005000083E10E94A801E9EBF0E080818E7F808387
:1005100080818D7F808388E48093B80085E4809318
:10052000BC0008951092FD041092FC0410924B053B
:1005300010926D050E94740289E990E09093FB048B
:100540008093FA048AE990E09093F9048093F80488
:100550000895CF93DF9391E09093A4048823B9F09A
:10056000C091B800D091BA008091BC008A7B809382
:10057000BC0060E082E10E94A80160E083E10E948B
:10058000A8010E947402D093BA00C093B800DF9112
:10059000CF9108958F929F92AF92BF92CF92DF92A8
:1005A000EF92FF920F931F93CF93DF93D0916D053E
:1005B000D13208F0D7C0182FC0916C050E94F40109
:1005C0006B017C018091440581116BC082E08093B6
:1005D0004405109343058FEF809342051092410527
:1005E000D0934005ACE4B5E0E0E2F5E080E0D8135C
:1005F00091C010921F0580911F05CC0FC82BC0938E
:100600001F0580911E05813009F088C010921E05DB
:100610000E94F4016B017C0180911F058093BB0057
:100620008091460590914705A0914805B0914905F4
:10063000892B8A2B8B2BA1F00E94F4010091460597
:100640001091470520914805309149056C197D09A5
:100650008E099F09061717072807390708F442C0B3
:100660008091BC0083FDD8CF85EC8093BC000E94B4
:10067000F4016B017C0180914405823009F450C083
:10068000809142058F3F09F46FC08091420580320E
:1006900009F46CC080914205803309F469C084E09C
:1006A00026C08091460590914705A0914805B091DC
:1006B0004905892B8A2B8B2B09F484CF0E94F401E6
:1006C0008090460590904705A0904805B090490558
:1006D0006C197D098E099F0986169706A806B9062A
:1006E00008F070CF809145050E94A90285E0109224
:1006F0004B0510926D0510924A05DF91CF911F9125
:100700000F91FF90EF90DF90CF90BF90AF909F90B0
:100710008F9008959D9191938F5F69CF85EEA5CFBE
:100720008091460590914705A0914805B0914905F3
:10073000892B8A2B8B2B09F49ECF0E94F401009108
:1007400046051091470520914805309149056C19DF
:100750007D098E099F09061717072807390708F032
:100760008ACFC0CF81E0C3CF80E0C1CF82E0BFCFCE
:1007700083E0BDCF1F93CF93DF93EA01122FDC01FB
:1007800011968D919C91DC01ED91FC910280F38199
:10079000E02D0995C817D90729F4812F0E94CA02B4
:1007A00091E0811190E0892FDF91CF911F91089501
:1007B000CF93DF93EC018B818823A1F0888191E0B6
:1007C00090934A0580936C0510924B0510926D052D
:1007D00081E00E94CA0291E0811190E0892FDF91AF
:1007E000CF9108950E94920281E08B83CE010E94F6
:1007F000D803982F8111E2CFF1CF0895E091FD0445
:100800008091FC04E81730F4F0E0E250FB4F808167
:1008100090E008958FEF9FEF08959091FD048091EF
:10082000FC042FEF3FEF981748F4E92FF0E0E25077
:10083000FB4F208130E09F5F9093FD04C901089534
:100840008091FC049091FD04891B990B0895CF922F
:10085000DF92EF92FF920F931F93CF93DF937C0170
:10086000CB018A0120914A05222389F0EB016B011B
:10087000C40ED51ECC15DD0569F06991D701ED9147
:10088000FC910190F081E02DC7010995F3CF642F11
:100890000E944D02C801DF91CF911F910F91FF90EF
:1008A000EF90DF90CF900895CF93DF931F92CDB755
:1008B000DEB7698320914A052223F9F020916D0566
:1008C000203258F021E030E0FC013383228390E0B5
:1008D00080E00F90DF91CF91089580914B05E82F34
:1008E000F0E0E45BFA4F998190838F5F80934B0532
:1008F00080936D0581E090E0ECCF61E0CE01019640
:100900000E944D02F7CF90E080E008954F925F92F1
:100910006F927F928F929F92AF92BF92CF92DF920F
:10092000EF92FF92CF93DF93CDB7DEB76A970FB602
:10093000F894DEBF0FBECDBF9A8F898FDB01FA011D
:10094000CD90DD90ED90FC90139720813181428114
:10095000538129833A834B835C8314962D913D9177
:100960004D915C9117972D833E834F835887248147
:1009700035814681578129873A874B875C8718964E
:100980002D913D914D915C911B972D873E874F870F
:10099000588B2085318542855385298B3A8B4B8B2B
:1009A0005C8B1C962D913D914D915C911F972D8BE9
:1009B0003E8B4F8B588F84849584A684B78429817D
:1009C0003A814B815C81C701B6010E941E162B0142
:1009D0003C0129853A854B855C856D817E818F81BF
:1009E00098850E941E169B01AC01C301B2010E94B2
:1009F000B3132B013C0129893A894B895C896D85A8
:100A00007E858F8598890E941E169B01AC01C301CB
:100A1000B2010E94B3132B013C01A50194016D8921
:100A20007E898F89988D0E941E169B01AC01C3019F
:100A3000B2010E94B313E98DFA8D608371838283C2
:100A4000938329853A854B855C85C701B6010E9451
:100A50001E162B013C012D813E814F8158856981F5
:100A60007A818B819C810E941E169B01AC01C3017F
:100A7000B2010E94B4132B013C01A50194016D85C4
:100A80007E858F8598890E941E169B01AC01C3014B
:100A9000B2010E94B4132B013C012D893E894F897C
:100AA000588D69897A898B899C890E941E169B01C1
:100AB000AC01C301B2010E94B313E98DFA8D6483C6
:100AC00075838683978329893A894B895C89C70115
:100AD000B6010E941E162B013C01A50194016D81F7
:100AE0007E818F8198850E941E169B01AC01C301F7
:100AF000B2010E94B3132B013C012D853E854F8529
:100B0000588969817A818B819C810E941E169B0184
:100B1000AC01C301B2010E94B4132B013C012D8929
:100B20003E894F89588D69857A858B859C850E9481
:100B30001E169B01AC01C301B2010E94B413E98DE2
:100B4000FA8D6087718782879387A5019401C70119
:100B5000B6010E941E166B017C0129893A894B89D6
:100B60005C896D817E818F8198850E941E169B0114
:100B7000AC01C701B6010E94B4136B017C012D8545
:100B80003E854F85588969857A858B859C850E942D
:100B90001E169B01AC01C701B6010E94B3136B0185
:100BA0007C012D893E894F89588D69817A818B819D
:100BB0009C810E941E169B01AC01C701B6010E94D8
:100BC000B413E98DFA8D6487758786879787CF017F
:100BD0006A960FB6F894DEBF0FBECDBFDF91CF91FE
:100BE000FF90EF90DF90CF90BF90AF909F908F904D
:100BF0007F906F905F904F900895CF93DF9300D0D8
:100C0000CDB7DEB769834A83FC0182819381FC0101
:100C10002481358122303105B8F0208131E03093D4
:100C20004A0520936C0510924B0510926D0521E04A
:100C300042E050E0BE016F5F7F4F0E94BA030F9009
:100C40000F90DF91CF91089580E0F9CF462FFC01FE
:100C5000608771876DE370E00E94FD056EE170E0D2
:100C600080E090E00C9419022F923F924F925F9295
:100C70006F927F928F929F92AF92BF92CF92DF92AC
:100C8000EF92FF920F931F93CF93DF93DC011496A3
:100C9000ED91FC911597EF2B09F412C169012A011E
:100CA000EC01888191E090934A0580936C05109245
:100CB0004B0510926D0520E041E050E0CD010E940F
:100CC000BA03782E882309F4FBC0F12CE12C3324DD
:100CD0003394EC14FD0408F0F4C08C819D818601EE
:100CE0000E191F098017910708F48C0128800E94B3
:100CF000F4014B015C0180914405811173C0602EA9
:100D0000B0E2B01710F480E2682E3092440521E082
:100D1000C601801B910BE816F90608F420E0209329
:100D20004305EFEFE0934205109241058FEF860DEA
:100D30008093400530921F0580911F05220C282AC0
:100D400020921F0580911E05813009F090C01092FD
:100D50001E050E94F4014B015C0180911F058093E8
:100D6000BB008091460590914705A0914805B09140
:100D70004905892B8A2B8B2BA1F00E94F40120912D
:100D8000460530914705409148055091490568193D
:100D900079098A099B09261737074807590708F474
:100DA00042C08091BC0083FDD8CFF5ECF093BC002D
:100DB0000E94F4014B015C0180914405813009F4EB
:100DC0005AC080914105861510F460904105A0E25B
:100DD000B5E0EEEFF4E080E0861551F19D9191933E
:100DE0008F5FFACF8091460590914705A091480505
:100DF000B0914905892B8A2B8B2B09F47CCF0E945B
:100E0000F4012091460530914705409148055091E5
:100E10004905681979098A099B0926173707480780
:100E2000590708F068CF809145050E94A902612CFE
:100E30001092FD046092FC046016110609F040C097
:100E400042018E0C9F1C5401C50188199909801715
:100E5000910798F589819A81DC01ED91FC910284DA
:100E6000F385E02D0995F50181935F01EDCF85EEC6
:100E70008093BC009DCF8091460590914705A0913D
:100E80004805B0914905892B8A2B8B2B09F494CF07
:100E90000E94F40120914605309147054091480594
:100EA00050914905681979098A099B09261737075E
:100EB0004807590708F080CFB6CFE00EF11E09CFE2
:100EC000712C872DDF91CF911F910F91FF90EF90A3
:100ED000DF90CF90BF90AF909F908F907F906F905A
:100EE0005F904F903F902F900895CF93DF931F9284
:100EF000CDB7DEB7698321E030E0AE014F5F5F4FD1
:100F0000BA01FC01828193810E94340689810F908D
:100F1000DF91CF910895DF92EF92FF920F931F938D
:100F2000CF93DF93EC010A811B810E94920281E042
:100F3000F801838385E5E82EF12CDD24D3940A8122
:100F40001B810E949202F801D382C8010E94D8033B
:100F5000182F811144C06AE070E080E090E00E94A8
:100F60001902F1E0EF1AF10851F710E0812FDF913B
:100F7000CF911F910F91FF90EF90DF90089562E362
:100F800070E080E090E00E94190240E06EE370E0C3
:100F9000CE010E94FD056AE070E080E090E00E94D2
:100FA000190240E067E070E0CE010E94FD0540E0DC
:100FB0006FE370E0CE010E94FD056AE070E080E022
:100FC00090E00E9419026CE070E0CE010E942606BB
:100FD00064E170E080E090E00E941902C7CF70E009
:100FE00060E0CE010E947507803A71F068EE73E010
:100FF00080E090E00E94190270E060E0CE010E9463
:101000007507803A09F0B1CF70E060E0CE010E9430
:10101000260640E26FE370E0CE010E94FD056EE11E
:1010200070E080E090E00E94190270E060E0CE0184
:101030000E947507803A09F4A2CF6AE070E080E070
:1010400090E0F1CFFC0101900020E9F73197AF016A
:10105000481B590BBC018EE695E00C949B008F92C7
:101060009F92AF92BF920F931F93CF93DF93CDB711
:10107000DEB7A1970FB6F894DEBF0FBECDBF19A2A1
:10108000423008F44AE08E010F5D1F4F842E912CF0
:10109000B12CA12CA50194010E94EF16E62FB901F5
:1010A000CA01EA30F4F4E05DD801EE938D01232B00
:1010B000242B252B79F790E080E0109719F0CD01D3
:1010C0000E942208A1960FB6F894DEBF0FBECDBFD6
:1010D000DF91CF911F910F91BF90AF909F908F9014
:1010E0000895E95CE1CF0C942208CF93DF930E942E
:1010F0002208EC0188E691E00E9422088C0F9D1FD7
:10110000DF91CF9108958BE691E00E94750887E802
:1011100091E00E94750888EA91E00E94750881ECD0
:1011200091E00E9475088EED91E00E94750885E0BF
:1011300092E00C9475080C94B3178F929F92AF9223
:10114000BF92CF92DF92EF92FF920F931F93CF93B4
:10115000DF93CDB7DEB763970FB6F894DEBF0FBE4F
:10116000CDBF8B01FB01349620E2DF011D922A9551
:10117000E9F744E250E060E070E0F8014083518319
:1011800062837383DC0114964D915D916D917C9126
:101190001797448355836683778343E050E060E08C
:1011A00070E040875187628773872FB7F89440912A
:1011B000ED045091EE046091EF047091F0042FBFA4
:1011C000408B518B628B738B2CE0FE013196DF01DB
:1011D0001D922A95E9F7AE01435F5F4F26E0FA01C1
:1011E00011922A95E9F72AE12B8B26E030E0BE0127
:1011F0006D5E7F4FDC0112968D919C910E943406AA
:101200006D857E85072E000C880B990B0E943A1580
:1012100020E030E040E85DE30E941E164B015C01D7
:101220006F857889072E000C880B990B0E943A1560
:1012300020E030E040E85DE30E941E166B017C0177
:1012400069897A89072E000C880B990B0E943A1540
:1012500020E030E040E85DE30E941E16F801848A39
:10126000958AA68AB78AC08ED18EE28EF38E648F5D
:10127000758F868F978F81E063960FB6F894DEBFE7
:101280000FBECDBFDF91CF911F910F91FF90EF90D7
:10129000DF90CF90BF90AF909F908F9008954F9226
:1012A0005F926F927F928F929F92AF92BF92CF92F6
:1012B000DF92EF92FF920F931F93CF93DF93CDB7FF
:1012C000DEB761970FB6F894DEBF0FBECDBF8C01BD
:1012D000FB01AE014F5F5F4F88E0DA011D928A95F6
:1012E000E9F780E2898728E030E0BE01675F7F4F41
:1012F000828193810E9434066F817885072E000CCD
:10130000880B990B0E943A1520E030E040E858E342
:101310000E941E166A877B878C879D876D817E81E0
:10132000072E000C880B990B0E943A1520E030E044
:1013300040E858E30E941E166E877F87888B998B42
:101340006B817C81072E000C880B990B0E943A154B
:1013500020E030E040E858E30E941E164B015C019B
:1013600069817A81072E000C880B990B0E943A152F
:1013700020E030E040E858E30E941E162B013C01BB
:10138000F801408251826282738284829582A682B1
:10139000B7828E859F85A889B98980879187A28722
:1013A000B3878A859B85AC85BD8584879587A6870D
:1013B000B787A3019201C301B2010E941E166B01FF
:1013C0007C01A5019401C501B4010E941E169B0178
:1013D000AC01C701B6010E94B4136B017C012E85DC
:1013E0003F8548895989CA01B9010E941E169B018F
:1013F000AC01C701B6010E94B4136B017C012A85C0
:101400003B854C855D85CA01B9010E941E169B0172
:10141000AC01C701B6010E94B4130E9491166B0182
:101420007C0120E030E0A9010E94111618169CF5FD
:10143000A7019601C301B2010E949714D8016D93D0
:101440007D938D939C931397A7019601C501B401D9
:101450000E949714F8016483758386839783A7019C
:1014600096016E857F85888999890E949714D80195
:1014700018966D937D938D939C931B97A70196016E
:101480006A857B858C859D850E949714F801648709
:10149000758786879787C80161960FB6F894DEBF77
:1014A0000FBECDBFDF91CF911F910F91FF90EF90B5
:1014B000DF90CF90BF90AF909F908F907F906F9074
:1014C0005F904F9008950F931F93CF93DF938C01FC
:1014D000EB0188E2FB0111928A95E9F74BE050E0BD
:1014E0006EE472E0CE010E943C181B8681E090E021
:1014F000A0E0B0E08C879D87AE87BF87F80184812C
:101500009581A681B781888B998BAA8BBB8B83E051
:1015100090E0A0E0B0E08C8B9D8BAE8BBF8B1CA2CB
:101520001DA21EA21FA2188E198E1A8E1B8E1C8E33
:101530001D8E1E8E1F8E8AE097EDA3E2BCE388A36A
:1015400099A3AAA3BBA3DF91CF911F910F910895F7
:1015500085ED8093BC008091460590914705A09150
:101560004805B09149050796A11DB11D23E0B69528
:10157000A795979587952A95D1F72091BC0024FDD2
:1015800003C01092440508954091460550914705C7
:101590006091480570914905452B462B472B69F30F
:1015A0000097A105B10541F02AE22A95F1F700C0A4
:1015B0000197A109B109E1CF809145050C94A902D9
:1015C0004F925F926F927F928F929F92AF92BF9253
:1015D000CF92DF92EF92FF920F931F93CF93DF93FF
:1015E000CDB7DEB72C970FB6F894DEBF0FBECDBFD8
:1015F0009A8789874A015B0109831A832B833C837D
:10160000AB019401CB01B4010E941E162B013C01D9
:1016100029813A814B815C81CA01B9010E941E1661
:101620009B01AC01C301B2010E94B4132B013C0128
:10163000A7019601C701B6010E941E169B01AC01CD
:10164000C301B2010E94B4130E9491162B013C0108
:1016500020E030E0A9010E949214882309F43CC1E3
:10166000A3019201C501B4010E9497146D837E838A
:101670008F839887A301920169817A818B819C81F4
:101680000E9497144B015C01A3019201C701B601AE
:101690000E9497146B017C01A985BA8514962D913F
:1016A0003D914D915C9117976D817E818F819885D9
:1016B0000E941E1669837A838B839C83E985FA8551
:1016C0002085318542855385C501B4010E941E16CF
:1016D0009B01AC0169817A818B819C810E94B4134A
:1016E00069837A838B839C83A985BA851C962D9107
:1016F0003D914D915C911F97C701B6010E941E1646
:101700009B01AC0169817A818B819C810E94B41319
:1017100069837A838B839C839B01AC016D817E817D
:101720008F8198850E941E162B013C0129813A81E8
:101730004B815C81C501B4010E941E164B015C0106
:1017400029813A814B815C81C701B6010E941E1636
:101750006B017C01A985BA858D919D910D90BC91FD
:10176000A02D8D839E83AF83B887A3019201C3010F
:10177000B2010E941E1669877A878B879C87A50114
:101780009401C501B4010E941E164B015C01A70122
:101790009601C701B6010E941E166B017C012D81C6
:1017A0003E814F815885CA01B9010E941E162985C4
:1017B0003A854B855C850E94B413A50194010E9473
:1017C000B413A70196010E94B4130E9491162B0135
:1017D0003C0120E030E0A9010E949214882309F422
:1017E0007BC0A501940169857A858B859C850E94C3
:1017F000B413A70196010E94B4130E9491166B01C5
:101800007C01A30192016D817E818F8198850E9468
:1018100097144B015C01A3019201C701B6010E941C
:101820009714A50194010E9433149B01AC010E94FE
:10183000B4134B015C0120E030E0A90169817A8199
:101840008B819C810E941116C12CD12C90E8E92E2D
:101850009FEBF92E87FD06C0C12CD12C80E8E82E25
:101860008FE3F82E20E030E044E353E4C501B401F7
:101870000E941E162BED3FE049E450E40E949714AD
:10188000A70196010E941E166B017C0120E030E04A
:1018900044E353E40E94111618164CF420E030E0A3
:1018A00044EB53E4C701B6010E94B313EDCF20E02F
:1018B00030E044E353ECC701B6010E94921487FF65
:1018C0000EC020E030E044EB53E4C701B6010E94B3
:1018D000B4136B017C01EBCFC12CD12C7601C70175
:1018E000B6012C960FB6F894DEBF0FBECDBFDF91C8
:1018F000CF911F910F91FF90EF90DF90CF90BF900D
:10190000AF909F908F907F906F905F904F900895D1
:101910001F920F920FB60F9211242F933F934F9364
:101920005F936F937F938F939F93AF93BF93EF9347
:10193000FF938EE695E00E941901FF91EF91BF9110
:10194000AF919F918F917F916F915F914F913F9157
:101950002F910F900FBE0F901F9018951F920F920E
:101960000FB60F9211242F938F939F93EF93FF93B2
:10197000E0917E05F0917F058081E0918405F091F2
:10198000850582FD1BC09081809187058F5F8F73D5
:1019900020918805821741F0E0918705F0E0E25937
:1019A000FA4F958F80938705FF91EF919F918F91CB
:1019B0002F910F900FBE0F901F9018958081F4CF3C
:1019C0001F920F920FB60F9211242F933F938F9374
:1019D0009F93AF93BF938091ED049091EE04A091FB
:1019E000EF04B091F0043091E80423E0230F2D3789
:1019F00058F50196A11DB11D2093E8048093ED04D4
:101A00009093EE04A093EF04B093F0048091E90466
:101A10009091EA04A091EB04B091EC040196A11D11
:101A2000B11D8093E9049093EA04A093EB04B09372
:101A3000EC04BF91AF919F918F913F912F910F90A7
:101A40000FBE0F901F90189526E8230F0296A11D38
:101A5000B11DD2CF1F920F920FB60F9211242F9368
:101A60003F934F935F936F937F938F939F93AF9326
:101A7000BF93EF93FF938091B900887F803609F47C
:101A80004AC0F0F5883209F4A7C018F5803109F48E
:101A90009BC0B8F4882309F4F9C0883009F494C0D5
:101AA000FF91EF91BF91AF919F918F917F916F9136
:101AB0005F914F913F912F910F900FBE0F901F900C
:101AC0001895883109F488C0803251F78093420517
:101AD00014C0803409F49DC040F48033B9F38833D6
:101AE000F9F68093420585ECB0C0803509F485C0D5
:101AF000883509F496C0883499F60E94A80AD0CF98
:101B0000883909F48CC038F5883729F050F48836C4
:101B100011F0803729F683E0809344051092E704A2
:101B200057C0883809F47BC0803919F0803809F033
:101B3000B7CF8091E704803208F071C0E091E704EC
:101B400081E08E0F8093E7048091BB00F0E0E953C1
:101B5000FB4F80833DC0803B39F0E0F4803A09F4CC
:101B600079C0883A09F09CCF84E0809344051092B4
:101B7000C6041092C504E091FA04F091FB040995A3
:101B80008091C50481110FC081E08093C50410923B
:101B9000A50409C0803C09F4A6CF883C09F4A3CF72
:101BA000883B09F07DCFE091C60481E08E0F8093E1
:101BB000C604F0E0EB55FB4F80818093BB00909111
:101BC000C6048091C50429C080911F058093BB0085
:101BD00085EC8093BC0064CF9091410580914005D5
:101BE000981758F5E091410581E08E0F80934105EB
:101BF000F0E0E05EFA4F8081E9CFE091410581E0BD
:101C00008E0F809341058091BB00F0E0E05EFA4FBB
:101C1000808390914105809140059817C8F285E82E
:101C2000D8CFE091410581E08E0F809341058091EE
:101C3000BB00F0E0E05EFA4F8083809143058111A4
:101C40005CCF81E080931E0584EA8093BC001092F3
:101C5000440526CF85EC8093BC001092440580910A
:101C6000E704803230F4E091E704F0E0E953FB4F01
:101C700010826091E70470E0E091F804F091F904BB
:101C800087EC94E009951092E7040ACF1092420580
:101C900034CF0F931F93CF93DF93EC010885198501
:101CA00070E060E00E94260669E170E080E090E06C
:101CB0000E94190240E067E070E0CE010E94FD053D
:101CC00040E86FE370E0CE010E94FD056AE070E03D
:101CD00080E090E00E941902B801CE010E94260621
:101CE00064E170E080E090E0DF91CF911F910F916F
:101CF0000C941902EF92FF921F93CF93DF937C0114
:101D0000CB0165E370E00E947507182FC82FD0E063
:101D1000C7010E94730886E392E00E947308612F56
:101D2000629566956695637070E090E080E04AE0A9
:101D30000E942F0882E492E00E947308BE0184E0B2
:101D4000759567958A95E1F7637070E090E080E0A3
:101D50004AE00E942F0886E492E00E947308D5951D
:101D6000C795D595C795C3706C2F70E090E080E063
:101D70004AE00E942F088AE492E00E9473081370E0
:101D8000612F70E090E080E04AE00E942F0888E632
:101D900091E0DF91CF911F91FF90EF900C9422087A
:101DA000CF92DF92EF92FF920F931F93CF93DF9327
:101DB000EEE6F5E01382128288EE93E0A0E0B0E058
:101DC00084839583A683B7832AE331E0318320831C
:101DD00025EC30E03587248724EC30E037872687F0
:101DE00020EC30E0318B208B21EC30E0338B228BE8
:101DF00022EC30E0358B248B26EC30E0378B268BC1
:101E0000118E128E138E148EC5E1D6E01B821A82BB
:101E10008C839D83AE83BF838CE491E09983888318
:101E200001E216E08EE5C82E81E0D82ED801CD92D1
:101E3000DC9287E390E0A0E0B0E0F8018483958332
:101E4000A683B78386E090E00E941717FC0188E222
:101E50008083D283C183138290E2E92EF12CF58234
:101E6000E482D8011396FC93EE9312970BE016E0F0
:101E7000F801D182C08288E390E0A0E0B0E08483E2
:101E80009583A683B78386E090E00E941717FC0134
:101E900089E28083D283C1831382F582E482D801F0
:101EA0001396FC93EE931297DF91CF911F910F91B0
:101EB000FF90EF90DF90CF900895CF93DF93CDB751
:101EC000DEB7C854D1090FB6F894DEBF0FBECDBF40
:101ED000789484B5826084BD84B5816084BD85B505
:101EE000826085BD85B5816085BD80916E00816011
:101EF00080936E00109281008091810082608093B7
:101F000081008091810081608093810080918000B8
:101F10008160809380008091B10084608093B100E3
:101F20008091B00081608093B00080917A008460DD
:101F300080937A0080917A00826080937A00809109
:101F40007A00816080937A0080917A008068809323
:101F50007A001092C100E0917E05F0917F0582E049
:101F60008083E0917A05F0917B051082E0917C05F9
:101F7000F0917D0580E1808310928605E0918205D5
:101F8000F091830586E08083E0918005F0918105E2
:101F9000808180618083E0918005F091810580815E
:101FA00088608083E0918005F09181058081806860
:101FB0008083E0918005F091810580818F7D808311
:101FC0000E94920281E296E00E948B0781110BC071
:101FD00082EA92E00E9475086AE070E080E090E09A
:101FE0000E941902F9CF8BE096E00E948B078111C5
:101FF0000BC081EE92E00E9475086AE070E080E01C
:1020000090E00E941902F9CF81E296E00E94490E09
:102010008BE096E00E94490E64EF71E080E090E072
:102020000E94190261E276E08DE193E00E947A0E4F
:102030006BE076E085E293E00E947A0E0E948308CE
:1020400093E0292E312C8EE695E00E94F9001816B7
:1020500019060CF0AEC08EE695E00E94D7008D30D8
:1020600091F38A3081F3833309F497C00CF063C095
:10207000813309F47AC00CF085C0803221F7809159
:10208000F6049091F704892B09F490C080E1E0E216
:10209000F1E0A0E0B1E001900D928A95E1F7C090E7
:1020A0000401D0900501E0900601F0900701F7FAD5
:1020B000F094F7F8F0944091080150910901609173
:1020C0000A0170910B01705880910C0190910D01E3
:1020D000A0910E01B0910F01B05880900001909036
:1020E0000101A0900201B090030180921001909232
:1020F0001101A0921201B0921301C0921401D0926A
:102100001501E0921601F0921701409318015093C7
:10211000190160931A0170931B0180931C01909325
:102120001D01A0931E01B0931F0131E03093F5040F
:1021300083E194E024C08A3509F4A1CF84F4853486
:1021400009F081CF1092F7041092F6041092F50472
:102150008FED93E00E9475080E94830874CF853646
:1021600089F38A3709F48BCF6ECF02E010E0109329
:10217000F7040093F6041092F5048CE293E00E94B9
:10218000750861CF21E030E03093F7042093F60426
:102190001092F5048CE693E0F2CF3092F70420928F
:1021A000F6041092F50484EA93E0E9CF8AE394E020
:1021B000E6CF8091F6049091F704892B99F462E3BD
:1021C00070E080E090E00E94190280E090E0892BAE
:1021D00009F439CF0E940501882309F434CF0E9405
:1021E000000031CF61E276E0CE01C1960E944F0936
:1021F0006BE076E0CE0181960E944F0989A99AA9E9
:10220000ABA9BCA989839A83AB83BC838DA99EA902
:10221000AFA9B8ADB0588D839E83AF83B88789AD21
:102220009AADABADBCADB05889879A87AB87BC87F8
:1022300021968CAD9DADAEADBFAD2197B0588D87C9
:102240009E87AF87B88BAE014F5F5F4FBE016F5D5A
:102250007F4FCE0141960E94860449885A886B8838
:102260007C888D889E88AF88B88C898D9A8DAB8D3F
:10227000BC8D25968CAF9DAFAEAFBFAF25970D8DB2
:102280001E8D2F8D38A129960CAF1DAF2EAF3FAFFD
:102290002997A3019201C301B2010E941E166B018E
:1022A0007C01A5019401C501B4010E941E169B0189
:1022B000AC01C701B6010E94B4136B017C012596E5
:1022C0002CAD3DAD4EAD5FAD2597CA01B9010E9461
:1022D0001E169B01AC01C701B6010E94B4136B012D
:1022E0007C0129962CAD3DAD4EAD5FAD2997CA015D
:1022F000B9010E941E169B01AC01C701B6010E94E4
:10230000B4130E9491166B017C0120E030E0A9011A
:102310000E941116181684F5A7019601C301B20197
:102320000E949714698B7A8B8B8B9C8BA7019601EB
:10233000C501B4010E9497146D8B7E8B8F8B988F93
:10234000A701960125966CAD7DAD8EAD9FAD25970D
:102350000E949714698F7A8F8B8F9C8FA7019601AB
:1023600029966CAD7DAD8EAD9FAD29970E949714D7
:102370006D8F7E8F8F8F98A380E1FE017196A0E212
:10238000B1E001900D928A95E1F78091F5048111F9
:1023900031C08FB7F894C090ED04D090EE04E09077
:1023A000EF04F090F0048FBF8091F1049091F2045B
:1023B000A091F304B091F404A7019601281B390BF6
:1023C0004A0B5B0BDA01C901843F9140A105B105BD
:1023D00060F08EE694E00E947508C092F104D092FD
:1023E000F204E092F304F092F40465E070E080E01F
:1023F00090E0E9CEAE014F5E5F4F60E171E0CE014B
:1024000001960E94860449805A806B807C808D8072
:102410009E80AF80B88489859A85AB85BC852596DA
:102420008CAF9DAFAEAFBFAF25970D851E852F85B5
:10243000388929960CAF1DAF2EAF3FAF2997A30166
:102440009201C301B2010E941E166B017C01A5011D
:102450009401C501B4010E941E169B01AC01C70185
:10246000B6010E94B4136B017C0125962CAD3DADE5
:102470004EAD5FAD2597CA01B9010E941E169B01A2
:10248000AC01C701B6010E94B4136B017C0129960F
:102490002CAD3DAD4EAD5FAD2997CA01B9010E948B
:1024A0001E169B01AC01C701B6010E94B4130E9425
:1024B00091166B017C0120E030E0A9010E94111609
:1024C000181684F5A7019601C301B2010E94971462
:1024D00069837A838B839C83A7019601C501B4012C
:1024E0000E9497146D837E838F839887A70196013E
:1024F00025966CAD7DAD8EAD9FAD25970E9497144E
:1025000069877A878B879C87A701960129966CAD8E
:102510007DAD8EAD9FAD29970E9497146D877E8704
:102520008F87988B8091F6049091F7048130910504
:1025300009F050C0C12CD12C80E8E82E8FE3F82E92
:1025400000E010E09801B901A801CE0101960E94B7
:10255000E00A6B017C0186E892E02FB7F894809046
:10256000ED049090EE04A090EF04B090F0042FBF23
:102570004091F1045091F2046091F3047091F404DD
:1025800095018401041B150B260B370BB901A8011B
:10259000443651056105710508F427CF0E94730880
:1025A000A7019601C701B6010E94D516882309F438
:1025B00048C087E994E00E94220888E691E00E94E2
:1025C00022088092F1049092F204A092F304B09257
:1025D000F4040BCF82309105B1F4C12CD12C7601DB
:1025E00000E010E020E83FE3B701A601CE0101962C
:1025F0000E94E00A6B017C01F7FAF094F7F8F0947E
:1026000085E592E0AACF0397B1F4C12CD12C7601D5
:102610009701860140E050E060E87FE3CE0101963B
:102620000E94E00A6B017C01F7FAF094F7F8F0944D
:102630008EE692E092CF8AE691E0C12CD12C760111
:102640008CCF26013701E89477F82FEF3FEF4FE763
:102650005FE7C301B2010E94D51681110DC02FEFB3
:102660003FEF4FE75FE7C301B2010E9492141816D3
:102670001CF48BE994E09FCF2FEF3FEF4FE75FE42F
:10268000C701B6010E94111618161CF48FE994E0D8
:1026900092CF2FEF3FEF4FE75FECC701B6010E94EB
:1026A000921487FDF3CF20E030E0A901C701B60105
:1026B0000E94921487FF09C06DE28EE695E00E94A9
:1026C0003B01F7FAF094F7F8F0942AE037ED43EA8B
:1026D0005BE3C701B6010E94B4132B013C010E94C9
:1026E00009156B017C010E9438159B01AC01C301E7
:1026F000B2010E94B3132B013C014AE0C701B601AD
:102700000E942F086EE28EE695E00E943B0120E0D9
:1027100030E040E251E4C301B2010E941E162B01D9
:102720003C010E9409156B01F12CE12C4AE0C70124
:10273000B6010E942F08C701B6010E9438159B01FF
:10274000AC01C301B2010E94B31320E030E040E2CB
:1027500051E40E941E160E94091590E080E04AE0B4
:102760000E942F082ACF5058BB27AA270E94CB13BC
:102770000C94D7150E94C91538F00E94D01520F08E
:1027800039F49F3F19F426F40C949F150EF4E0954C
:10279000E7FB0C949915E92F0E94E81558F3BA1736
:1027A000620773078407950720F079F4A6F50C9467
:1027B0000A160EF4E0950B2EBA2FA02D0B01B901CD
:1027C00090010C01CA01A0011124FF27591B99F0A7
:1027D000593F50F4503E68F11A16F040A22F232FB3
:1027E000342F4427585FF3CF469537952795A79503
:1027F000F0405395C9F77EF41F16BA0B620B730BAA
:10280000840BBAF09150A1F0FF0FBB1F661F771F1A
:10281000881FC2F70EC0BA0F621F731F841F48F4CF
:10282000879577956795B795F7959E3F08F0B0CF58
:102830009395880F08F09927EE0F9795879508953F
:102840000E94C91560F080E891E009F49EEF0E94B3
:10285000D01528F040E851E071F45EEF0CC00C9404
:102860009F150C940A16E92FE0780E94E81540F3B2
:10287000092E052AB1F3261737074807590738F0FC
:102880000E2E07F8E02569F0E025E0640AC0EF634A
:1028900007F8009407FADB01B9019D01DC01CA01C8
:1028A000AD01EF930E94AE140E94D7150E946314ED
:1028B0005F91552339F02BED3FE049E450FD49ECA1
:1028C0000C94B4130895DF93DD27B92FBF7740E848
:1028D0005FE31616170648075B0718F4D92F0E9406
:1028E00016169F938F937F936F930E94D116E8E6FD
:1028F000F0E00E94A2150E94D7152F913F914F91B1
:102900005F910E943116DD2351F09058A2EA2AED22
:102910003FE049EC5FE3D0785D270E94CB13DF9165
:102920000C94D7150E94751508F481E008950E9453
:10293000AB140C94D7150E94D01558F00E94C915FD
:1029400040F029F45F3F29F00C94991551110C9433
:102950000B160C949F150E94E81568F39923B1F3A8
:10296000552391F3951B550BBB27AA2762177307B5
:10297000840738F09F5F5F4F220F331F441FAA1F49
:10298000A9F335D00E2E3AF0E0E832D09150504005
:10299000E695001CCAF72BD0FE2F29D0660F771FB3
:1029A000881FBB1F261737074807AB07B0E809F099
:1029B000BB0B802DBF01FF2793585F4F3AF09E3F1E
:1029C000510578F00C9499150C940B165F3FE4F3C5
:1029D000983ED4F3869577956795B795F7959F5F61
:1029E000C9F7880F911D9695879597F90895E1E0AD
:1029F000660F771F881FBB1F621773078407BA070C
:102A000020F0621B730B840BBA0BEE1F88F7E09566
:102A100008950E94F01588F09F5798F0B92F9927D4
:102A2000B751B0F0E1F0660F771F881F991F1AF0B9
:102A3000BA95C9F714C0B13091F00E940A16B1E0FE
:102A400008950C940A16672F782F8827B85F39F0FD
:102A5000B93FCCF3869577956795B395D9F73EF452
:102A600090958095709561957F4F8F4F9F4F0895FA
:102A7000E89409C097FB3EF4909580957095619518
:102A80007F4F8F4F9F4F9923A9F0F92F96E9BB27CE
:102A90009395F695879577956795B795F111F8CF4A
:102AA000FAF4BB0F11F460FF1BC06F5F7F4F8F4FB5
:102AB0009F4F16C0882311F096E911C0772321F0AB
:102AC0009EE8872F762F05C0662371F096E8862F43
:102AD00070E060E02AF09A95660F771F881FDAF79A
:102AE000880F9695879597F90895990F0008550FC7
:102AF000AA0BE0E8FEEF16161706E807F907C0F084
:102B000012161306E407F50798F0621B730B840B8B
:102B1000950B39F40A2661F0232B242B252B21F465
:102B200008950A2609F4A140A6958FEF811D811D05
:102B3000089597F99F6780E870E060E008959FEF3F
:102B400080EC0895DF93CF931F930F93FF92EF9242
:102B5000DF927B018C01689406C0DA2EEF010E949F
:102B60003116FE01E894A591259135914591559135
:102B7000A6F3EF010E94CB13FE019701A801DA949E
:102B800069F7DF90EF90FF900F911F91CF91DF9148
:102B9000089500240A9416161706180609060895C3
:102BA00000240A9412161306140605060895092E29
:102BB0000394000C11F4882352F0BB0F40F4BF2B98
:102BC00011F460FF04C06F5F7F4F8F4F9F4F0895D8
:102BD00057FD9058440F551F59F05F3F71F04795CE
:102BE000880F97FB991F61F09F3F79F087950895B3
:102BF000121613061406551FF2CF4695F1DF08C0D2
:102C0000161617061806991FF1CF869571056105EE
:102C100008940895E894BB2766277727CB0197F996
:102C200008950E94751508F48FEF08959B01AC017B
:102C300060E070E080E89FE30C9497140E943116E6
:102C40000C94D7150E94C91538F00E94D01520F0B9
:102C5000952311F00C9499150C949F1511240C9444
:102C60000B160E94E81570F3959FC1F3950F50E085
:102C7000551F629FF001729FBB27F00DB11D639F2E
:102C8000AA27F00DB11DAA1F649F6627B00DA11DD4
:102C9000661F829F2227B00DA11D621F739FB00D7A
:102CA000A11D621F839FA00D611D221F749F3327EA
:102CB000A00D611D231F849F600D211D822F762F83
:102CC0006A2F11249F5750409AF0F1F088234AF060
:102CD000EE0FFF1FBB1F661F771F881F91505040CC
:102CE000A9F79E3F510580F00C9499150C940B1692
:102CF0005F3FE4F3983ED4F3869577956795B79553
:102D0000F795E7959F5FC1F7FE2B880F911D96956C
:102D1000879597F9089519F416F40C949F150C945F
:102D2000DA160E94F015B8F39923C9F3B6F39F574A
:102D3000550B87FF0E94E8160024A0E640EA9001A8
:102D400080585695979528F4805C660F771F881FEA
:102D500020F026173707480730F4621B730B840BEB
:102D6000202931294A2BA69517940794202531252F
:102D70004A2758F7660F771F881F20F02617370756
:102D8000480730F4620B730B840B200D311D411D7D
:102D9000A09581F7B901842F9158880F9695879552
:102DA00008959B01AC010C941E160E947515880BAA
:102DB000990B08959F3F31F0915020F487957795B6
:102DC0006795B795880F911D9695879597F9089502
:102DD00091505040660F771F881FD2F70895A1E2E7
:102DE0001A2EAA1BBB1BFD010DC0AA1FBB1FEE1F85
:102DF000FF1FA217B307E407F50720F0A21BB30BD0
:102E0000E40BF50B661F771F881F991F1A9469F74B
:102E100060957095809590959B01AC01BD01CF01A7
:102E20000895EE0FFF1F0590F491E02D09940F9384
:102E30001F93CF93DF938230910510F482E090E0EE
:102E4000E0912D06F0912E0630E020E0B0E0A0E009
:102E5000309799F42115310509F44AC0281B390B24
:102E600024303105D8F58A819B816115710589F17E
:102E7000FB0193838283FE0111C040815181028155
:102E8000138148175907E0F04817590799F410972C
:102E900061F012960C93129713961C933296CF0101
:102EA000DF91CF911F910F91089500932D061093FC
:102EB0002E06F4CF2115310551F04217530738F093
:102EC000A901DB019A01BD01DF01F801C1CFEF01CA
:102ED000F9CF90932E0680932D06CDCFFE01E20F01
:102EE000F31F819391932250310939832883D7CFDF
:102EF00020912B0630912C06232B41F42091320196
:102F00003091330130932C0620932B062091300111
:102F1000309131012115310541F42DB73EB7409173
:102F2000340150913501241B350BE0912B06F091B3
:102F30002C06E217F307A0F42E1B3F0B28173907C6
:102F400078F0AC014E5F5F4F2417350748F04E0F05
:102F50005F1F50932C0640932B06819391939FCF34
:102F6000F0E0E0E09CCFCF93DF930097E9F0FC0125
:102F7000329713821282A0912D06B0912E06ED0198
:102F800030E020E01097A1F420813181820F931F5F
:102F900020912B0630912C062817390709F061C0C3
:102FA000F0932C06E0932B06DF91CF910895EA0170
:102FB000CE17DF07E8F54A815B819E014115510577
:102FC000B1F7E901FB83EA8349915991C40FD51FF9
:102FD000EC17FD0761F4808191810296840F951FA3
:102FE000E90199838883828193819B838A83F0E0BE
:102FF000E0E012968D919C9113970097B9F52D9171
:103000003C911197CD010296820F931F20912B06C0
:1030100030912C062817390739F6309751F5109260
:103020002E0610922D06B0932C06A0932B06BCCF33
:10303000D383C28340815181840F951FC817D9075C
:1030400061F44E5F5F4F88819981480F591F51830A
:1030500040838A819B81938382832115310509F006
:10306000B0CFF0932E06E0932D069ECFFD01DC013C
:10307000C0CF13821282D7CFFB01DC0141505040F8
:1030800048F001900D920020C9F701C01D924150F7
:103090005040E0F70895F894FFCF0000803F000013
:1030A000000000000000000000000000803F000061
:1030B000000000000000000000000000803F000051
:1030C0000000000000000000000000002F0680004B
:1030D000000000003B019B00C8008801F900D700F8
:1030E000EB0000000000540427048304FD032004C7
:1030F0000D04FE03000000004B029B084C029D08DB
:10310000630A0D0A000A3D3D3D204D454EC39A20FD
:103110004445204D4544494349C3934E203D3D3DE0
:1031200000313A20466C657869C3B36E2F457874D8
:10313000656E7369C3B36E20287069746368205923
:103140002900323A20556C6E61722F5261646961B8
:103150006C2028726F6C6C205A2900333A20507210
:103160006F6E6F2F537570696E616369C3B36E20A4
:103170002879617720582900653A20446574656E86
:103180006572206D6564696369C3B36E2028766FCC
:103190006C76657220616C206D656EC3BA2900443F
:1031A0007572616E7465206D6564696369C3B36E21
:1031B0002C2066696A6120656C206365726F2063EC
:1031C0006F6E204553504143494F2F277A272E00D9
:1031D0002063616C6962205359533A0020473A00DA
:1031E00020413A00204D3A00424E4F3035350046DE
:1031F0004C45582F4558542028706974636829201D
:103200005B6465675D3A200050524F4E4F2F535517
:1032100050202879617729205B6465675D3A20003A
:10322000554C4E41522F52414449414C2028726F17
:103230006C6C29205B6465675D3A20004552524FF3
:10324000523A206E6F20696E6963696120424E4F69
:10325000303535206D75C3B1656361202830783213
:1032600038292E205265766973612041444F2079B8
:10327000206361626C6561646F2E004552524F524B
:103280003A206E6F20696E6963696120424E4F304B
:103290003535206D616E6F202830783239292E2027
:1032A0005265766973612041444F207920636162E1
:1032B0006C6561646F2E004D75C3B1656361004D2F
:1032C000616E6F2020004D6F646F3A20466C657808
:1032D00069C3B36E2F457874656E7369C3B36E208E
:1032E0002870697463682059292E2046696A612014
:1032F0006365726F20636F6E204553504143494FA1
:103300002F277A272E004D6F646F3A20556C6E611F
:10331000722F52616469616C2028726F6C6C205A44
:10332000292E2046696A61206365726F20636F6E83
:10333000204553504143494F2F277A272E004D6F88
:10334000646F3A2050726F6E6F737570696E61634F
:1033500069C3B36E20287961772058292E204669E9
:103360006A61206365726F20636F6E204553504120
:1033700043494F2F277A272E003E3E204D65646932
:103380006369C3B36E20646574656E6964612E20E1
:1033900050726573696F6E6120312F322F33207048
:1033A00061726120696E69636961722E003E3E2020
:1033B0004365726F2066696A61646F2028706F735D
:1033C000747572612061637475616C203D2030C238
:1033D000B0292E003E3E204E6F20686179206D6539
:1033E00064696369C3B36E206163746976612E207A
:1033F00050726573696F6E6120312F322F332070E8
:1034000072696D65726F2E004573706572616E64CE
:103410006F204553504143494F2F277A2720706131
:1034200072612066696A6172206365726F2E2E2E4A
:0E343000006E616E00696E66006F76660000C9
:107E0000112484B714BE81FFF0D085E080938100F7
:107E100082E08093C00088E18093C10086E0809377
:107E2000C20080E18093C4008EE0C9D0259A86E02C
:107E300020E33CEF91E0309385002093840096BBD3
:107E4000B09BFECF1D9AA8958150A9F7CC24DD24C4
:107E500088248394B5E0AB2EA1E19A2EF3E0BF2EE7
:107E6000A2D0813461F49FD0082FAFD0023811F036
:107E7000013811F484E001C083E08DD089C08234E0
:107E800011F484E103C0853419F485E0A6D080C0E4
:107E9000853579F488D0E82EFF2485D0082F10E0AE
:107EA000102F00270E291F29000F111F8ED06801E7
:107EB0006FC0863521F484E090D080E0DECF843638
:107EC00009F040C070D06FD0082F6DD080E0C81688
:107ED00080E7D80618F4F601B7BEE895C0E0D1E017
:107EE00062D089930C17E1F7F0E0CF16F0E7DF06D8
:107EF00018F0F601B7BEE89568D007B600FCFDCFD4
:107F0000A601A0E0B1E02C9130E011968C91119780
:107F100090E0982F8827822B932B1296FA010C0160
:107F200087BEE89511244E5F5F4FF1E0A038BF0790
:107F300051F7F601A7BEE89507B600FCFDCF97BE46
:107F4000E89526C08437B1F42ED02DD0F82E2BD052
:107F50003CD0F601EF2C8F010F5F1F4F84911BD097
:107F6000EA94F801C1F70894C11CD11CFA94CF0C13
:107F7000D11C0EC0853739F428D08EE10CD085E9AC
:107F80000AD08FE07ACF813511F488E018D01DD067
:107F900080E101D065CF982F8091C00085FFFCCF94
:107FA0009093C60008958091C00087FFFCCF809118
:107FB000C00084FD01C0A8958091C6000895E0E648
:107FC000F0E098E1908380830895EDDF803219F02E
:107FD00088E0F5DFFFCF84E1DECF1F93182FE3DFCA
:107FE0001150E9F7F2DF1F91089580E0E8DFEE27F6
:047FF000FF270994CA
:027FFE00040479
:00000001FF
